:400000000010002011000000550400005504000010B500F027FAC04670B50F4C23688022D20213432360182000F03CFB22680B4B134023600A4A0B4B1A60063A0A4B1A604F
:40004000002525600949092000F0F8FA092000F0E9FA074B1D6070BD00010B40FFFFFBFF0600008004010B4008010B40B50800000C020B4010B572B600240FE01F48620034
:40008000131959000B00411889881A5AC31858880004104300F0D8F90134E4B2012CEDD9EE221202164B1A6099231B04154A1360154A1360154A1360154A1360154A117837
:4000C00006230B43DBB213708322134B1A60134A134B1A601F22134B1A60134A134B1A608022134B1A60D8221204124B1A60124A124B1A60FFF790FF10BDC046640C00001D
:400100000C00014000500F4010500F4020500F4030500F4000700F4000000440B60D5800080004400001044096241800080104400002044008020440860D00000803044052
:4001400010B5064C2378002B07D1054B002B02D0044800E000BF0123237010BD5801002000000000000C0000084B10B5002B03D00749084800E000BF07480368002B00D17E
:4001800010BD064B002BFBD09847F9E7000000005C010020000C0000C00000200000000070B50D00140000F0ADF9280000F09EF9200000F0B3F970BD70B50500002412E04F
:4001C000802323412B4203D0012000F01FFA02E0002000F01BFA012000F00CFA002000F009FA013464B2072CEADD70BD10B5002414E00120A040C043C0B2FFF7DDFF094B72
:40020000185DFFF7D9FF012000F0E8F9002000F0E5F9022000F024FA0134E4B2072CE8D910BDC046C400002070B50509002402E0FFF7DCFF0134AC42FAD370BD10B50020E9
:4002400000F088F9012000F091F9012000F09AF90A2000F01DFA00F0A1F9002801D0002400E0312400F0A2F9002800D1342400F0A5F9002800D1372400F0A8F9002800D179
:400280002A24012000F066F9002000F06FF9012000F078F90A2000F0FBF900F07FF9002800D1322400F082F9002800D1352400F085F9002800D1382400F088F9002800D1D7
:4002C0003024012000F046F9012000F04FF9002000F058F90A2000F0DBF900F05FF9002800D1332400F062F9002800D1362400F065F9002800D1392400F068F9002800D18E
:400300002324012000F026F9012000F02FF9012000F038F9200010BD10B50022074B1A70002303E0FF21064AD1540133072BF9DD002200210020FFF733FF10BD7401002057
:40034000C400002070B562B600F0F4F8374800F0F3F8FFF7E1FF0025FFF770FF041E60D0002D5ED1232844D1314B1B78042B23D1042230492E48043000F030FC00281BD10D
:400380002D4800F0D9F8012200210120FFF708FF2A4BBF221A70FF2159708C2098700438D8700A30187158719971DA712448FFF73BFFFFF7B1FF34E0224800F0BDF801223B
:4003C00001210020FFF7ECFE1C4BFF221A70BF2159708E2098700638D87071301871323858719971DA711648FFF71EFFFFF794FF17E02A2802D1FFF78FFF12E00C4B1B78BC
:40040000032B0ED80A49CA1810710A482200303A8218107A094AD05401330B70200000F09FFAFFF7E3FE250096E7C046180C000074010020040C00003C0C0000C4000020AD
:40044000C4090000500C000010B50A00002100F0BDFB10BD10B500F08DFB03680C2B00D1FEE7FEE770B50F4E0F4D13E029686B68AC68002202E001C901C30432A242FAD1B4
:40048000E868002202E0002102C304328242FAD11035013E002EE9D100F072FBFFF752FFFEE7C04601000000C40C000010B500230AE0032B03D89A000949505800E00948D1
:4004C0009900094A885001332F2BF2D9FFF7D2FD8022D205116801230B43136010BDC04600000000550400000000002004490A68D2B204239A438000184010430860704766
:400500000000044004490A68D2B240239A43800118401043086070470001044004490A68D2B208239A43C0001840104308607047000004407047C04670B5050000780124C7
:4005400004E000F00DFA285D0134E4B20028F8D170BDC046044A1368DBB201218B430840184310607047C0460000044004490A68D2B202239A434000184010430860704783
:4005800000000440044A1368DBB201218B430840184310607047C04600010440024B1868400801231840704704010440024B1868800801231840704704010440024B18686D
:4005C000C00801231840704704010440024B186800090123184070470401044004490A68D2B240239A43800118401043086070470002044004490A68D2B240239A4380014D
:40060000184010430860704700000440044A1368DBB201218B430840184310607047C046000304401F2318401E3B8340014A13607047C04600E100E001BE704770B50400BE
:400640000D001F2802D90020FFF7F6FF1034A40080239B059C4664442068256070BDC04610B5040006E0084B586800F0E5F9074B9C46644480231B029C42F4D8024B986828
:40068000604300F0D9F910BDD80000200080FFFF10B5034B1B7B584300F0CEF910BDC046D8000020F0B557464E46C0B483B0040000F0CCF90190E71E2D2F74D83F4B1B783B
:4006C000DBB29C4208D83E4B1B78DBB29A463D4B1B78DBB2994631E03B4B1B78DBB29C4208D83A4B1B78DBB29A46394B1B78DBB2994623E0374B1B78DBB29C4208D8364B3E
:400700001B78DBB29A46354B1B78DBB2994615E0334B1B78DBB29C4208D8324B1B78DBB29A46314B1B78DBB2994607E02F4B1B78DBB29A462E4B1B78DBB299462D4BDE5D65
:400740002F2E09D92A2C07D919222B4B1A60052000F072F9192503E0274B1D683F231D40B54206D9234BDA5D234B1A60052000F063F91F4B9C4664442378DBB21F4A1360B6
:400780001F4B52461A601F4B4A461A600520FFF77FFFB5420AD2174BDA5D174B1A60052000F04AF902E00020FFF746FF019800F051F903B00CBC91469A46F0BDC0F1FF0F62
:4007C000C1F1FF0FC2F1FF0FC3F1FF0FC4F1FF0FC5F1FF0FC6F1FF0FC7F1FF0FC8F1FF0FC9F1FF0FCAF1FF0FCBF1FF0FCCF1FF0FCDF1FF0F700C00002CFF0B4028FF0B4087
:400800001CFF0B4020FF0B40034B1868C0231B02184000D00120704700010B4010B500F015F9044A1368C02109020B43136000F011F910BD00010B4010B500F007F908497C
:400840000A68084B1A408024E40122430A600A6813408022120213430B6000F0FBF810BD00010B40FF3FFFFF70B5050000F0EEF80400FFF7C9FF002803D0FFF7DDFF0121DC
:4008800000E0002108482840084A1568084B2B40184310601368012901D1FFF7BFFF200000F0D8F870BDC0460404040010020B40FBFBFBFF10B5244B1B685B0715D5234B1F
:4008C0001B685B070ED5224BD969042001401F4C22688A432260DA698243DA611B69002B00D098470420FFF7BFFF174B1B685B0518D5164B1B685B0510D5154BD9698022C0
:40090000D2001140114802688A430260D969114A0A40DA615B69002B00D098478020C000FFF7A2FF084B1B685B030CD5074B1B685B0304D5064B9B69002B00D098478020FB
:40094000C002FFF791FF10BD10020B40EC00002080010020FFFBFFFF0000000000000000FEB5494652465B460EB407462E4909688A462E4A12682E48022100F06FF8030039
:400980002A480068C0182A4900F068F806001F3EB346234A126801219140C9430C000125002600F053F8814651460B6823400B605846043000F040F83800F04028409040B4
:4009C0000B68234003430B60584600F035F80136072EF1D900200130012090400B68234003430B605846063000F026F8484600F031F8C046C046C0460EBC894692469B46C9
:400A0000FEBDC046C046C046C046C046C046C046C046C046C046C046C046C046C046C046D4000020D0000020CC000020E800002000C20100000000000230800804D0C04672
:400A40000138FDD1C046C046C0467047EFF3108072B6704780F310887047C046002243088B4274D303098B425FD3030A8B4244D3030B8B4228D3030C8B420DD3FF22090252
:400A800012BA030C8B4202D31212090265D0030B8B4219D300E0090AC30B8B4201D3CB03C01A5241830B8B4201D38B03C01A5241430B8B4201D34B03C01A5241030B8B4242
:400AC00001D30B03C01A5241C30A8B4201D3CB02C01A5241830A8B4201D38B02C01A5241430A8B4201D34B02C01A5241030A8B4201D30B02C01A5241CDD2C3098B4201D3FB
:400B0000CB01C01A524183098B4201D38B01C01A524143098B4201D34B01C01A524103098B4201D30B01C01A5241C3088B4201D3CB00C01A524183088B4201D38B00C01A55
:400B4000524143088B4201D34B00C01A5241411A00D20146524110467047FFE701B5002000F006F802BDC0460029F7D076E770477047C046014B18687047C0465001002000
:400B80000E4B70B500251E000D4CE41AA410A54204D0AB00F35898470135F8E700F080F8084B00251E00084CE41AA410A54204D0AB00F35898470135F8E770BDAC0C000036
:400BC000AC0C0000AC0C0000B40C000003008218934202D019700133FAE77047002330B59A420BD0013AC45CCD5CAC4205D19A4202D00133002CF6D12500631B180030BDA8
:400C0000000000003535373800000000C0F9A4B0999282F8808890830D0A204C6162352053656375726974792053797374656D2053746172746564200D0A00000D0A4143AD
:400C400043455353204752414E5445440D0A00000D0A4143434553532044454E4945440D0A00000000300F40000400400F400004030405060708090A0B0C0E0F101112139D
:400C80001415161718191B1C1D1E1F2021222325262728292A2B2E2F3031323334354300F8B5C046F8BC08BC9E46704769010000AD040000F8B5C046F8BC08BC9E46704708
:400CC00041010000D80C0000C000002098000000480000000000000000000000FFFFFFFFFFFFFFFF000204400200000007000000010000000000E02EC05D00001800000083
:400D000000366E010404040000000000000000000000000000000000000000000000000000000000000000009E0C0000000000000000000000000000000000000000000058
:400D400000000000000000000000000000000000000000000000000000000000000000000000000000000000F0000020000000000000000000000000000000000000000063
:400D80000000000000000000000000000000000000000000000000000000000000000000000000000000000000000000000000000000000000000000000000000000000033
:400DC00000000000000000000000000000000000000000000000000000000000000000000000000000000000000000000000000000000000000000000000000000000000F3
:400E000000000000000000000000000000000000000000000000000000000000000000000000000000000000000000000000000000000000000000000000000000000000B2
:400E40000000000000000000000000000000000000000000000000000000000000000000000000000000000000000000000000000000000000000000000000000000000072
:0200000490303A
:020000006A395B
:0200000490402A
:200000000000000000000000000000000000000000000000000000000000000000000000E0
:0200000490501A
:0C000000000204C81193110104CC7BCC59
:0200000490600A
:0100000001FE
:00000001FF